:100000000C9446000C9465000C9465000C946500FB
:100010000C9465000C9465000C9465000C946500CC
:100020000C94E8010C9465000C9465000C94650038
:100030000C9465000C9465000C9465000C946500AC
:100040000C9465000C9465000C94DE020C94650021
:100050000C9465000C9465000C9465000C9465008C
:100060000C9465000C941F020C9465000C946500C0
:100070000C9465000C9465000C9451020C9465007E
:100080000C9465000C9465000C94650011241FBE4F
:10009000CFEFD0E1DEBFCDBF21E0A4E7B1E001C0EA
:1000A0001D92A438B207E1F711E0A0E0B1E0EEEC58
:1000B000F1E100E00BBF02C007900D92A437B10739
:1000C000D9F70E9400030C94E5080C94000094EA10
:1000D000909374009091740097FFFCCF9EE49093EE
:1000E000730094E8909374009091740097FFFCCF94
:1000F0008093730084E8809374008091740087FF7C
:10010000FCCF84E98093740008955D9BFECF8CB989
:10011000089590919B0095FFFCCF80939C000895DB
:100120008FB9779BFECF8FB10895C098880F8068F4
:100130000E94900080E00E949000C09A0895CF93A2
:10014000C62FC098880F0E9490008C2F0E949000AC
:10015000C09ACF9108954F925F926F927F928F9243
:100160009F92AF92BF92CF92DF92EF92FF921F9336
:10017000CF93DF93EC0167E08DE00E949F0082E562
:10018000888384E00E949500682F6F7784E00E9446
:100190009F008AE00E949500682F60688AE00E94B4
:1001A0009F0060E081E00E949F00688189E00E94DA
:1001B0009F006CE081E00E949F008DE00E9495000E
:1001C000682F60688DE00E949F0020EDC22E27E01E
:1001D000D22EE12CF12C84E00E949500182F81E0B2
:1001E000C81AD108E108F10819F0812F817399F339
:1001F0008DE00E949500682F6F778DE00E949F0030
:10020000CD28CE28CF28E1F186E00E9495008B71A1
:10021000B9F510FF47C012E08AE00E949500882ED1
:100220008CE00E9495008770C82CD12CE9F191E0F8
:10023000C91AD10893E0CC0CDD1C9A95E1F7C80EE1
:10024000D11C0D2C000CEE08FF0881E0882021F065
:10025000882D813108F080E1412C512C3201882E0B
:10026000912CB12CA12C481459046A047B0410F180
:10027000113031F490E1C916D104E104F10409F020
:1002800013E0812FDF91CF911F91FF90EF90DF90CE
:10029000CF90BF90AF909F908F907F906F905F9026
:1002A0004F90089511E0B8CF83E0CC0CDD1C8A9507
:1002B000E1F7C7CF89E00E94950089938FEF481A34
:1002C000580A680A780ACFCFCF93C0917501CB7FC7
:1002D0008C2F0E9467008C2F84600E946700C0935F
:1002E00075018C2F0E9467008FEF98E10197F1F75D
:1002F00000C00000CF910895CF93DF93C82F909155
:1003000075019F70807F982B909375010E94640106
:10031000809175018F7090E1C99FE00111248C2BB1
:1003200080937501DF91CF910C9464010F931F931B
:10033000CF938C01C0E0F801EC0FF11D8081811199
:1003400004C0CF911F910F910895909175019D7FE9
:100350009160909375010E947C01CF5FECCF9091EA
:1003600075019C7F909375010C947C01FC01A28126
:10037000B3819C918581448121E030E001C0220F4E
:100380004A95EAF7922369F48130D1F42FEF30E7F0
:1003900092E0215030409040E1F700C0000015820B
:1003A0000895811113C02FEF30E782E021503040D3
:1003B0008040E1F700C0000081E0858382E008957D
:1003C000811104C081E0858383E0089580E0089571
:1003D0001F920F920FB60F9211242F933F938F937A
:1003E0009F930F9B15C08CB59DB590937D01809315
:1003F0007C018AB78F7B8ABF8AB780688ABF9F914A
:100400008F913F912F910F900FBE0F901F901895D5
:100410008CB59DB590937B0180937A0180917A0190
:1004200090917B0120917C0130917D01821B930B87
:1004300090937901809378018AB7806CDFCF1F9207
:100440000F920FB60F9211248F939F9380910F01FB
:100450008823B1F0809180009091810090937D017C
:1004600080937C0180918A008F7B80938A00109218
:100470000F019F918F910F900FBE0F901F901895B5
:10048000809180009091810090937B0180937A010C
:1004900080918A00806480938A0081E080930F01BC
:1004A000E8CF1F920F920FB60F9211240BB60F9246
:1004B0002F933F934F935F936F937F938F939F936C
:1004C000AF93BF93EF93FF9380919C00B89A8134D0
:1004D000D1F583E50E94890089E70E94890083E7BE
:1004E0000E94890084E70E94890085E60E948900B5
:1004F0008DE60E94890080E20E9489008CE40E94BF
:1005000089008FE60E94890083E60E9489008BE6BD
:100510000E9489008AE00E94890081E080930E0198
:10052000FF91EF91BF91AF919F918F917F916F91CB
:100530005F914F913F912F910F900BBE0F900FBE87
:100540000F901F9018958234B1F583E50E948900C1
:1005500089E70E94890083E70E94890084E70E945E
:10056000890085E60E9489008DE60E94890080E26C
:100570000E9489008FE40E94890080E70E94890020
:1005800085E60E94890082E70E94890081E60E9438
:10059000890084E70E94890089E60E9489008FE62D
:1005A0000E9489008EE60E9489008AE00E948900EC
:1005B00010920E01B5CF0E948500B2CF1F920F920C
:1005C0000FB60F9211248F939F938CB19091770166
:1005D000913049F08A3011F08D3061F4109276013B
:1005E00081E0809377019F918F910F900FBE0F90C4
:1005F0001F901895809176018F5F80937601F3CFDD
:10060000CF93DF93CDB7DEB7EC970FB6F894DEBF8C
:100610000FBECDBF44E350E05FAB4EAB23E330E011
:1006200039AF28AF86E08AAF81E08BAFA69858AB90
:100630004FA73AAB29AB97E09BAB8CABA798109236
:1006400090008FEC89B9599A9AB198619AB9579AE2
:100650001092900089B9599A9AB198619AB9579AAB
:10066000109298008093990080919B008260809303
:100670009B0080919A00886180939A0080919A00F3
:10068000806880939A00139A80918B00826880938F
:100690008B0080918A008B6180938A0087E893E1C8
:1006A000909381008093800081B3836081BB88E454
:1006B000809370002FEF89EF90E0215080409040B0
:1006C000E1F700C0000083E00E94AF018FE39CE9E6
:1006D0000197F1F700C0000083E00E94AF018FE9AD
:1006E0009FE00197F1F700C0000083E00E94AF0196
:1006F00082E00E94AF0188E20E94AF0188E00E9480
:10070000AF0181E00E94AF0186E00E94AF018CE062
:100710000E94AF01809175018860809375010E94ED
:100720006700BC9A83B78E6683BF9FEF97BB8FB578
:10073000896A8FBD8EB58A608EBD19BC18BC1092B7
:100740007900109278001BBC1ABC9ABB8E9A17983D
:100750008AB7806C8ABF89B7806889BF8EB583608D
:100760008EBD87B3876087BB8DB181658DB96FE022
:1007700081E00E949F006DE88AE20E949F006EE384
:100780008BE20E949F006EE18CE20E949F0060E07D
:100790008DE20E949F0060E485E10E949F006DE36E
:1007A00081E10E949F0084E10E949500982F937040
:1007B00029F4682F636084E10E949F0019BC18BC73
:1007C0008FEF90E090937900809378001BBC1ABC67
:1007D00080E091E0909381018093800187E30E9403
:1007E000950082E00E949500682F606282E00E947E
:1007F0009F0083E00E949500682F606883E00E945C
:100800009F00CE014F960E94AB00582E789483E053
:10081000482E312C212C01E0CE0101967C01AA2426
:10082000AA94B12C2FE4C22E21E0D22E32E7632EFF
:100830007724739447E8842E912C93E0591208C0D2
:10084000491206C0CE014F960E94AB00582E482E8A
:1008500010910E0122E020930E0181E0481236C073
:10086000113011F01111122DCE01C6960E94B60161
:10087000823009F41027CE018F960E94B601823093
:1008800009F43026332021F19AEF91BF112311F1A1
:100890002FEF2BBB909287008092860080E80E9409
:1008A000AF0180E191E00E94960180EC0E94AF01CF
:1008B00087E291E00E949601B9BCA8BCB092790091
:1008C000A09278001BBC1ABC212EB7CF122DDACF14
:1008D00011BEDCCF1BBA1DBC1CBC969885E08A9566
:1008E000F1F70000969A95E39A95F1F70000969833
:1008F000609178017091790190E080E00E94130589
:100900002DEB37E346E856E30E94790520E030ED11
:1009100044E057E40E9479050E94E4046A317105BD
:1009200088F5B9BCA8BC10927900109278001BBC65
:100930001ABC80E80E94AF018EE391E00E9496010C
:100940001F921F92DF92CF92FF92EF920E940E06AB
:1009500080EC0E94AF01C7010E949601909287002F
:10096000809286002FEF86E791E0215080409040F2
:10097000E1F700C000000F900F900F900F900F90C4
:100980000F90A2CF19BC18BCB0927900A092780049
:100990001BBC1ABC80E80E94AF018CE591E00E946C
:1009A00096011F920F93DF92CF92FF92EF920E94D7
:1009B0000E0680EC0E94AF01C7010E949601709262
:1009C000870060928600CECF0E94580588F09F571E
:1009D00098F0B92F9927B751B0F0E1F0660F771F63
:1009E000881F991F1AF0BA95C9F714C0B13091F059
:1009F0000E947205B1E008950C947205672F782F5C
:100A00008827B85F39F0B93FCCF38695779567951D
:100A1000B395D9F73EF490958095709561957F4F89
:100A20008F4F9F4F0895E89409C097FB3EF490952F
:100A30008095709561957F4F8F4F9F4F9923A9F0B7
:100A4000F92F96E9BB279395F69587957795679546
:100A5000B795F111F8CFFAF4BB0F11F460FF1BC08A
:100A60006F5F7F4F8F4F9F4F16C0882311F096E91D
:100A700011C0772321F09EE8872F762F05C06623CB
:100A800071F096E8862F70E060E02AF09A95660F84
:100A9000771F881FDAF7880F9695879597F908953D
:100AA00057FD9058440F551F59F05F3F71F047951F
:100AB000880F97FB991F61F09F3F79F08795089504
:100AC000121613061406551FF2CF4695F1DF08C023
:100AD000161617061806991FF1CF86957105610540
:100AE00008940895E894BB2766277727CB0197F9E8
:100AF00008950E948C050C94FD050E94EF0538F0C6
:100B00000E94F60520F0952311F00C94E6050C9454
:100B1000EC0511240C9473050E94500570F3959F09
:100B2000C1F3950F50E0551F629FF001729FBB27E4
:100B3000F00DB11D639FAA27F00DB11DAA1F649F80
:100B40006627B00DA11D661F829F2227B00DA11D33
:100B5000621F739FB00DA11D621F839FA00D611DB9
:100B6000221F749F3327A00D611D231F849F600DDA
:100B7000211D822F762F6A2F11249F5750409AF003
:100B8000F1F088234AF0EE0FFF1FBB1F661F771F8F
:100B9000881F91505040A9F79E3F510580F00C945A
:100BA000E6050C9473055F3FE4F3983ED4F3869515
:100BB00077956795B795F795E7959F5FC1F7FE2BFA
:100BC000880F911D9695879597F9089597F99F67D6
:100BD00080E870E060E008959FEF80EC08950024C5
:100BE0000A941616170618060906089500240A9492
:100BF00012161306140605060895092E0394000C18
:100C000011F4882352F0BB0F40F4BF2B11F460FFA6
:100C100004C06F5F7F4F8F4F9F4F08950F931F93B7
:100C2000CF93DF93CDB7DEB72E970FB6F894DEBF24
:100C30000FBECDBF0D891E8986E08C831A83098380
:100C40008FEF9FE79E838D83AE01475E5F4F6F8975
:100C5000788DCE0101960E943E062F813885020FC5
:100C6000131FF80110822E960FB6F894DEBF0FBE48
:100C7000CDBFDF91CF911F910F9108952F923F9299
:100C80004F925F926F927F928F929F92AF92BF929C
:100C9000CF92DF92EF92FF920F931F93CF93DF9348
:100CA000CDB7DEB72B970FB6F894DEBF0FBECDBF22
:100CB0007C013B018A01FC0117821682838181FF3E
:100CC000DDC1CE0101965C01F7019381F30193FD33
:100CD000859193FF81913F01882309F453C18532A7
:100CE00039F493FD859193FF81913F01853229F479
:100CF000B70190E00E945708E7CF912C212C312CAE
:100D0000FFE1F31538F08B3211F190F4803209F1E4
:100D1000833229F137FC3CC020ED280F2A3050F5F2
:100D200036FE20C08AE0989E200D1124922E06C027
:100D30008D3291F0803371F7689430F8F30193FDB0
:100D4000859193FF81913F018111DACF21C0689491
:100D500031F8689432F8F2CF689433F8EFCF6894A2
:100D600034F8ECCFEAE02E9E200D1124222E689458
:100D700035F8E4CF8E3229F436FC04C1689436F895
:100D8000DDCF8C3619F4689437F8D8CF8836B1F2B5
:100D9000982F9F7D95549330E0F08336A1F18337EF
:100DA000C1F1833509F063C02801F2E04F0E511CF8
:100DB000F801C080D180692D70E036FC02C06FEF71
:100DC0007FEFC6010E9441084C01689437F8820108
:100DD0000AC00C5F1F4FFFE3F98388248394912C92
:100DE0006501E89437F833FE2DC0522C811491042C
:100DF00071F5552009F468CFB70180E290E00E94B8
:100E000057085A94F6CFF801808189830E5F1F4FEF
:100E1000E4CF2801F2E04F0E511CF801C080D180D0
:100E2000692D70E036FC02C06FEF7FEFC6010E94B3
:100E30004C084C018201D5CFB70180E290E00E94BE
:100E400057082A942814190409F0B0F7CECFF601F8
:100E500037FC859137FE81916F01B70190E00E94C8
:100E6000570851105A94F1E08F1A9108BFCF843679
:100E700019F0893609F077C0F80137FE6BC0608140
:100E80007181828193810C5F1F4FF32DFF763F2E7E
:100E900097FF09C090958095709561957F4F8F4F12
:100EA0009F4F689437F82AE030E0A5010E94870838
:100EB000C82ECA188C2C432C36FE0CC0E89440F87F
:100EC000C91440F434FE05C032FC03C0F32DFE7E8D
:100ED0004F2E892C44FEAAC0FE01EC0DF11D80812D
:100EE000803309F09CC0242D297E422E842D8870E9
:100EF000582E43FCAAC040FEA4C09C2C821418F4B7
:100F00002C0C922C981844FEA6C0B70180E390E008
:100F10000E94570842FE09C088E790E041FE02C0E7
:100F200088E590E0B7010E945708C91408F49FC0F3
:100F3000CA94D12C9FEFC91AD90ACA0CDB1CF6013E
:100F400082916F01B70190E00E945708AC14BD0474
:100F5000B1F74FCF60817181072E000C880B990B80
:100F60000E5F1F4F92CFD32CE894D4F82AE030E0E4
:100F70008537E1F1232D297FD22E8F36A9F1F0F4A8
:100F8000883551F1F701868197812B960FB6F89439
:100F9000DEBF0FBECDBFDF91CF911F910F91FF90AC
:100FA000EF90DF90CF90BF90AF909F908F907F9009
:100FB0006F905F904F903F902F900895803749F049
:100FC000883701F7D4FE02C06894D2F820E130E0FF
:100FD0000DC06894D4F8F6CF34FE03C0822F86602B
:100FE000D82E20E132E002C028E030E0F801D7FE40
:100FF0000FC060817181828193810C5F1F4FA501B9
:101000000E948708C82ECA183D2CE89437F852CFA2
:101010006081718190E080E00E5F1F4FF0CF42FC55
:1010200002C0839463CF8394839460CF842D8678A9
:1010300009F45CCFF6CFB70180E290E00E94570838
:1010400083948214C0F3512C5ECF522C5818821412
:1010500008F459CFF8CF842D867809F466CF8BE257
:1010600041FE80E247FC8DE2B70190E05CCFB70122
:1010700080E390E00E9457089A9457CF8FEF9FEF3C
:1010800084CFFC010590615070400110D8F7809525
:1010900090958E0F9F1F0895FC0161507040019044
:1010A0000110D8F7809590958E0F9F1F08950F938C
:1010B0001F93CF93DF93182F092FEB018B8181FDB5
:1010C00009C01FEF0FEF812F902FDF91CF911F915C
:1010D0000F91089582FF14C02E813F818C819D81E4
:1010E000281739073CF4E881F981CF0101969983EB
:1010F000888310838E819F8101969F838E83E3CFA7
:10110000E885F985812F0995892BA1F3DACFFA01BA
:10111000AA27283051F1203181F1E8946F936E7F36
:101120006E5F7F4F8F4F9F4FAF4FB1E03ED0B4E027
:101130003CD0670F781F891F9A1FA11D680F791F68
:101140008A1F911DA11D6A0F711D811D911DA11D79
:1011500020D009F468943F912AE0269F1124301989
:10116000305D3193DEF6CF010895462F4770405D24
:101170004193B3E00FD0C9F7F6CF462F4F70405DD3
:101180004A3318F0495D31FD4052419302D0A9F72E
:10119000EACFB4E0A6959795879577956795BA9528
:1011A000C9F700976105710508959B01AC010A2EEE
:1011B00006945795479537952795BA95C9F7620FC5
:0E11C000731F841F951FA01D0895F894FFCF84
:1011CE000000000200000000850000000000020187
:1011DE005761726E696E6721212120202020202008
:1011EE002020202020200020202020202020202011
:1011FE0020202020202020202020202020004E6F84
:10120E00205061726B696E67205370616365005385
:10121E0070616365203A20252D35640057656C6337
:10122E006F6D65205E5E2020202020202020202053
:04123E00202000006C
:00000001FF
